:030000000215F2F4
:0C15F200787FE4F6D8FD75813F021639C1
:10190C0053540D0A002425752C252E32660D0A0021
:10191C00504152410D0A002325752C25750D0A00E6
:10192C004552524F520D0A0000000000000000000A
:10193C00000000000000000000000000000000009B
:01194C00009A
:0E1DA40000007F057E907D47DDFEDEFCDFFA4D
:011DB200220E
:1009A200E490004FF090005204F0E4A3F0A3F0A30F
:1009B200F0A3F0A3F0A3741EF0A3F0A37423F0A39A
:1009C200F0E4A3F0A3F0A3F0A3F078607C007D0133
:1009D2007BFF7A197934FE7F191205F57580FF7550
:1009E200A08075A0A0E4F580F5A07B017A00795C77
:1009F2007526017F21121887121D70121D2F90007B
:100A02004CE0C3940A7480948040F3E4F01217051A
:100A120090004DE0C39432748094805003020B72B4
:100A2200E4F090004FE070061218CA020B619000C9
:100A32004FE06401700E1217F990005EEEF0A3EF22
:100A4200F0020B6190004FE064027032900052E0BD
:100A5200602490005EE0FEA3E0FF7C007D0A1206A7
:100A62008590005AE0FDD3EF9DEE940050047F661E
:100A720080067FCC80027F14121D46020B6190001B
:100A82004FE064036003020B4B900079E0700302B5
:100A92000B61E4F0900093F0787A7C007D017BFF9B
:100AA2007A19790C12089CEF3395E04F7045752541
:100AB200FF75261975271190005EE0FEA3E0FF7C0A
:100AC200007D0A1206858E288F29900050E0FCA333
:100AD200E0FDE41201D1E4FBFA79C8784212012F59
:100AE2008F2D8E2C8D2B8C2A7B017A007960120F30
:100AF20016804B787A7C007D017BFF7A19791C1273
:100B0200089CEF3395E04F70267525FF7526197501
:100B1200272390005AE0752800F529900058E075C7
:100B22002A00F52B7B017A007960120F16800F786C
:100B3200607C007D017BFF7A19792C1209857B018B
:100B42007A007960121C18801690004FE0640470DD
:100B52000E7B017A00795C7526017F21121AE590DD
:100B6200004FE004F0C39404748094804002E4F0E7
:100B7200E50F600B900056F0A3E510F0020CA89070
:100B82000057E0C39464748094804003020C719017
:100B92000056E0FF7E00640D7052900053E0700436
:100BA2007D0180027D00900053EDF0E4A3F0A3F0FC
:100BB200ED7039900059E0FD900058E0B5050C90B9
:100BC200005BE0FC90005AE06C6021900058EDF070
:100BD20090005BE090005AF090005DE004F0700637
:100BE20090005CE004F090004F7404F0900053E039
:100BF200701EEF640C4E6003020CA1A3E004F0C36C
:100C02009403748094805003020CA1E4F0020CA1BE
:100C1200900056E0640C7011900055E070047F0162
:100C220080027F00900055EFF0900055E0701FA306
:100C3200E0FF7E0064107007900059E024FEF0EFA0
:100C420064114E705A900059E02402F080519000D5
:100C520056E0FF7E006410700790005BE024FBF01A
:100C6200EF64114E703990005BE02405F080309003
:100C72000056E0FF7E00640C700E90005CF0A3F062
:100C820090004F7404F08017EF640D4E70119000C5
:100C920052E070047F0180027F00900052EFF0E486
:100CA200900056F0A3F0900053E07010A3E075F0AE
:100CB20008A42412F582E5F034008010900055E07B
:100CC20075F008A4242AF582E5F03400AF82F50D10
:100CD2008F0E900050E0FAA3E0FB7C037DE8FFAEAC
:100CE200021206857C007D0A120685900016EDF040
:100CF2007C007D64AF03AE021206857C007D0A1281
:100D02000685ED2420A3F0900050A3E07C007D0A2C
:100D1200FFAE021206857C007D0A1206859000183D
:100D2200EDF07C007D0AAF03AE02120685A3EDF062
:100D320090005EE0FAA3E0FB7C007D64FFAE02124D
:100D420006857C007D0A120685900020EDF07C006D
:100D52007D0AAF03AE021206857C007D0A1206856B
:100D6200A3EDF090005CE0FEA3E0FFC39410EE94CC
:100D72002740157C277D101206857C007D0A12060D
:100D820085900025EDF080069000257410F090000B
:100D92005CE0FEA3E0FFC394E8EE940340157C03FD
:100DA2007DE81206857C007D0A120685900026EDFC
:100DB200F080069000267410F090005CE0FEA3E044
:100DC200FFC39464EE940040157C007D6412068596
:100DD2007C007D0A120685900027EDF080069000C7
:100DE200277410F090005CE0FEA3E0FFC3940AEECB
:100DF200940040157C007D0A1206857C007D0A1253
:100E02000685900028EDF080069000287410F0907E
:100E1200005CE0FEA3E0FF7C007D0A1206859000E4
:100E220029EDF0900059E0FF75F00A84900030F04F
:100E3200EF75F00A84A3E5F0F090005BE0FF75F037
:100E42000A84900038F0EF75F00A84A3E5F0F09080
:100E52000058E0FF7E007C007D64120673D3900090
:100E620051E09F900050E09E90004AE0400544010E
:100E7200F0800354FEF090005EE0FEA3E0FF7C00F1
:100E82007D0A12068590005AE0FDD3EF9DEE940094
:100E920090004AE040054402F0800354FDF09000C7
:100EA20052E0600A90004AE04404F0020A00900016
:080EB2004AE054FBF0020A00C3
:101844003F065B4F666D7D077F6F777C395E7971EC
:101854000040761E7038375C733E783D6750376EB3
:10186400BF86DBCFE6EDFD87FFEF460102040810DB
:10187400204080131211100F0E0D0C0B0A090807DB
:0318840006050452
:10145B0041004A00410000004100010A4100110A0D
:10146B0041004B00603800121010101010101010BB
:10147B00190110101010101019021010101010106C
:10148B001903101010101010190410101010101058
:10149B001905101010101010190610101010101044
:1014AB00020D0012410009FF010800010F0001109D
:1014BB000041004E0041000E0041000D00010900EB
:1014CB0041000C0041004C0041004D004100040064
:1014DB00420007000042000F0000420002000042E1
:1014EB000005000042000A0000010A0A020B00641A
:101D94005389F0438904E4F58AF58CC28DD28C22F0
:101D7000438E4053890F758B50758DFBC28FD28E69
:031D8000D2AB22C1
:0B1DDC00EFF4F58043A08053A01F220D
:10194D00E4F58043A0C053A01FE50E2508F582E401
:10195D00350DF583E090184493F4F58043A0E053E2
:10196D00A01FE50890186F93F58043A0C053A01FEA
:10197D000508C3E5089408748094804003E4F508D5
:01198D002237
:101A7A0043B00FE5B0F4540F6026C3E51094FF7429
:101A8A008094805002051020B303750F0420B2031E
:101A9A00750F0520B103750F0620B009750F0722CF
:061AAA00E4F50FF5102227
:10198E00E5B0F4900094F090000DE0FF900094E02C
:10199E00FE6FFFEE5FFF90000EF090000DEEF0EF89
:1019AE0020E01CA3E020E11720E21420E3119000B8
:0F19BE000DE030E00A0509E50964647002F509DF
:0119CD0022F7
:101782007FFF7EFF75B00FE4F5C0E5B0F4540F6043
:1017920060C3E51094FF748094805002051020B05D
:1017A20002E4FF20B1027F0120B2027F0220B302D5
:1017B2007F0375B0F075C0FF20B402E4FE20B502CD
:1017C2007E0120C2027E0220C4027E03EFF4602169
:1017D200EEF4601DEE25E025E02477F582E434186E
:1017E200F583E5822FF582E43583F583E493F50FE3
:0617F20022E4F510F50FE2
:0117F80022CE
:101705007FFF7EFF43B00853B00FE4F5C0E5B0F4AA
:10171500540F6063C3E51094FF74809480500205F4
:101725001020B002E4FF20B1027F0120B2027F0247
:1017350020B3027F0343B0F053B0F775C0FF20B468
:1017450002E4FE20B5027E0120C2027E0220C40210
:101755007E03EFF46021EEF4601DEE25E025E02424
:1017650077F582E43418F583E5822FF582E4358335
:0C177500F583E493F50F22E4F510F50F66
:011781002245
:10153C007FFF7EFF43B00853B00FE4F5C0E5B0F475
:10154C00540F6069C3E51094FF74809480500205B9
:10155C001020B002E4FF20B1027F0120B2027F0212
:10156C0020B3027F0343B0F053B0F775C0FF20B433
:10157C0002E4FE20B5027E0120C2027E0220C402DB
:10158C007E03EFF46021EEF4601DEE25E025E024EF
:10159C0077F582E43418F583E5822FF582E4358300
:1015AC00F583E493F50F22E4F510F50F22E50F60B7
:1015BC002FAF107E00D3EF94FA748094805021C327
:1015CC00EF94647480948050047510FF22C3EF94E0
:1015DC00C8EE6480948050047510FE227510FD22B4
:0515EC00E4F50FF5100D
:0115F10022D7
:03001B00021329A4
:10132900C0E0C083C082C0D075D000C005C006C06F
:0113390007AC
:10133A00900001E0FF900000E0D39F500990004A1E
:10134A00E0F4F58080037580FF43A08053A01F90CE
:10135A000011E0FF900000E004F0C39F4002E4F0B7
:10136A00050AC3E50A940A74809480500302144C57
:10137A00750A0090004CE004F0A3E004F090000627
:10138A00E004F07006900005E004F0900004E00428
:10139A00F0900008E004F07006900007E004F09076
:1013AA000010E004F0700690000FE004F0900003D3
:1013BA00E004F07006900002E004F075800043A09B
:1013CA00C053A01F90004BE0FF250EF582E4350DB7
:1013DA00F583E090184493F4F58043A0E053A01FEE
:1013EA00EF90186F93FF900009E0FEEF5EF58043DF
:1013FA00A0C053A01F90004BE004F0C3940874806F
:10140A0094804002E4F0050CE50C7002050BC394CD
:10141A0064E50B9400401F750B00750C00C28CAF7D
:10142A008CEFFFAD8AED90000ACFF0A3EFF0758A3A
:10143A0000758C00D28C90000CE0F58043A0A0537C
:02144A00A01FE1
:0F144C00D007D006D005D0D0D082D083D0E032E8
:0C14FB00011104011600041200000000A2
:041CB200D2A07F0538
:101CB600000000000000000000000000000000AE70
:061CC600071FEE70EB2287
:0F1DB300D2A1121CB2C2A17F05121CB6C2A0227F
:0C1DD000C2A1121CB2D2A17F05021CB6F9
:021AB000AD0780
:101AB200E4FCECC39408748094805024C2A07F0597
:101AC200121CB6ED30E704D2A18002C2A17F05123A
:101AD2001CB6D2A0ED25E0FD7F05121CB60C80D20B
:021AE200C2A0A0
:011AE40022DF
:101A4300121AB0121C84121DB37F91121AB0121C09
:011A5300840E
:101A5400E4FCECC39408748094805017121CB2ED1B
:101A640025E0FD30A103430501C2A07F05121CB689
:051A74000C80DFAF054E
:011A7900224A
:0A1C7A00AB07121DB37F90121AB0E1
:101C8400121CB2A2A1E433FDC2A07F05121CB6AFA0
:011C9400054A
:011C9500222C
:10000300C2A0EF24FF92A17F05121CB6121CB2C23C
:08001300A0D2A17F05021CB67A
:101AE5008F22121DB37FA0121AB0121C84AF2212CE
:101AF5001AB0121C84AF261526EF601312061BFFC1
:101B0500121AB0121C84740129F9E43AFA80E6022B
:021B15001DD0E1
:021887008F22AE
:10188900121DB37FA0121AB0121C84AF22121AB013
:10189900121C84121DB37FA1121AB0121C84121AD1
:1018A90054EF1206611526E526600EE4FF120003C7
:1018B900740129F9E43AFA80E57F01120003021D57
:0118C900D04E
:101CE600431140121C7CAF11121AB0121C84AF169D
:091CF600121AB0121C84021DD068
:101D83005311BF121C7CAF11121AB0121C84021D16
:011D9300D07F
:101A0B00121C7CAF11121A43E4FF120003121A547A
:101A1B008F12E4FF120003121A548F13E4FF12000B
:101A2B0003121A548F14E4FF120003121A548F1569
:081A3B007F01120003021DD01F
:101C3D00121C7AEB4440FF121A43E4FF121AB01241
:0E1C4D001A54AB077F01121AB0121DD0AF035C
:011C5B002266
:101D4600121C7A7F40121AB0121C84AF03121AB00A
:061D5600121C84021DD0E6
:0E1DC200121C7CE4FF121AB0121C84021DD009
:04150700021D0000C1
:041C5C007F057E0082
:101C6000EF1FAA0670011E4A600FE4FDEDC3940643
:091C70007480948050EA0D80F3A9
:011C79002248
:021B7200A907C1
:101B7400E4FBEBC39408748094805016C2AFC29403
:101B8400E9139294121C5CD294E9C313F9D2AF0BFB
:091B940080E07F057E00021C6068
:101B1700E4FBEBC3940874809480501FC2AFC29457
:101B2700ECC313FCD2947F017E00121C6030940337
:0D1B3700430480121C5CD2AF0B80D7AF04BA
:011B4400227E
:101B9D00C200D2947F0C7E00121C60C2947F507ED6
:101BAD0000121C60D294C2AF7F0A7E00121C60A28C
:0A1BBD00949200D2AF121C5CA2004B
:011BC70022FB
:1018CA00121B9D7FCC121B727F44121B72121B9D2E
:1018DA007FCC121B727FBE121B72121B177522005D
:1018EA008F23121B17EF4522FCE523FDE41201D1D9
:1018FA00E4FBFA79C8784012002612020A8E1D8F7C
:01190A001EBE
:01190B0022B9
:0A150B000317173B37031A23595545
:101C9600E4FEEEC3940874809480500FC297EF134D
:0B1CA60092A3EFC313FFD2970E80E75C
:011CB1002210
:101D5C00C29300C29700D29300121C96AF05121CBE
:041D6C0096C2932266
:1019CE00E4FDC29300C29700D29300121C96E4FF6E
:1019DE00EFC39408748094805011C297EDC313FD29
:1019EE0030A303430580D2970F80E5C29300C297C0
:0C19FE0000D29700C2A300D2A300AF05E6
:011A0A0022B9
:101B4500E4FFEFC3940374809480502074172FF83A
:101B5500E6FE75F00A84C454F0FDEE75F00A84EDD6
:0C1B650025F0FE741A2FF8A6060F80D69B
:011B71002251
:101BC800E4FFEFC3940374809480501C741A2FF8B8
:101BD800E6FEC4540F75F00AA4FDEE540F2DFE74F2
:081BE800172FF8A6060F80DAA2
:011BF00022D2
:101CFF00121B45AD1A7F84121D5CAD1B7F82121D16
:081D0F005CAD1C7F80021D5C2D
:101D17007F851219CE8F1A7F831219CE8F1B7F8171
:081D27001219CE8F1C021BC82B
:061DEF0000007F24DFFE6E
:011DF50022CB
:101CCC00E4FEEEC3940874809480500DD290121DE3
:091CDC00EFC290121DEF0E80E929
:011CE50022DC
:1017F90075D90075F98D75E91C121CCCD2DE3091B2
:101809000330DFFAC2DE20DF26AFF9EFFEADE9EDE6
:1018190024E4FDEE3472FCE41201D17B967A43791B
:101829008B783C12002612020A8E228F238007C26F
:0A183900DFE4F522F523AE22AF2311
:011843002282
:10151500C10959007A000000000000000000000029
:101525000000000000000000000000000000410075
:0615350093004100790063
:101D2F00759850438E01438E0475D78F75D6FD433A
:071D3F008E10D2ACD2AF22DE
:0300230002167E44
:10167E00C0E0C083C082C0D075D000C007309904CE
:10168E00C299C209309865C298900093E0FF247AFF
:10169E00F582E43400F583E599F0747A2FF582E44F
:1016AE003400F583E0B40A28900093E02479F582A3
:1016BE00E43400F583E0B40D179000797401F090D6
:1016CE000093E004F0247AF582E43400F583E4F02C
:1016DE00900093E004F0C3941974809480400D90B0
:1016EE00007AE4F0900079F0900093F0D007D0D01B
:0716FE00D082D083D0E0325E
:081DE7002009FDD2098F9922A9
:101C18008B228A238924AB22AA23A92412061B60BB
:101C2800130524E5247002052314F912061BFF127C
:051C38001DE780E2221F
:10002600EC4D6011E8497017ED33EC3304600DE4D4
:10003600FCFFFEFD22E933E8330470F80202761273
:10004600024158046009E4CC248150062850090274
:10005600028028400302027DC0E0EB4A7044B9806A
:1000660006D0E0FB02026CEF4E701CBD8008EBFF71
:10007600EAFEE9FD80EBE98DF0A4FEE5F002010F52
:10008600E9CDF9EAFEEBFFEF89F0A4FCE5F0CE89B5
:10009600F0A42EFFE435F0CD89F0A42DFEE435F072
:1000A6008067EF4E7005BD80D780C3EF8BF0A4ACA0
:1000B600F0EE8BF0A42CFCE435F0F8EF8AF0A42CDB
:1000C600E5F038FCE433CB8DF0A42CFCE5F03BF8EE
:1000D600EE8AF0A42CFCE5F038F8E433CF89F0A4DE
:1000E6002CFCE5F038CF3400CE89F0A42FFFE5F0E4
:1000F6003EFEE433C98DF0A42EFEE5F039CD8AF03C
:10010600A42FFFE5F03EFEE43DFD33D0E0FB5007B3
:100116000BBB000F020280EC2CFCEF33FFEE33FE2C
:06012600ED33FD0202585A
:10012C00020280EC5D046005E8590470030202765B
:10013C00120241580460F6EC4860F2EC7004FDFECB
:10014C00FF22C860DB2481C85009C39860025006A6
:10015C0002027D9850CAF582E9294B4A7005AB82A0
:10016C0002026C75F0007C1A7880C3EF9BEE9AED5E
:10017C0099400DC3EF9BFFEE9AFEED99FDE842F01E
:10018C00DC23ACF0D0E0FFD0E0FED0E0FDAB822071
:10019C00E7101BEB60BAEC2CFCEF33FFEE33FEEDFB
:1001AC0033FD020258E803F830E705C0F075F000A3
:1001BC00EF2FFFEE33FEED33FD40B830E7C280AADF
:1001CC0075F020800E75F010800575F0087D007EAE
:1001DC00007F003392D530D5031206DAEC33401091
:1001EC00EF33FFEE33FEED33FDEC33FCD5F0ED22B7
:0E01FC00E5F0247EA2D513CC92E7CDCEFF22F3
:10020A00EDD2E7CD33EC3392D524814006E4FFFEEC
:10021A00FDFC22FCE4CFCECDCC24E0501174FF804B
:10022A00EDC3CC13CCCD13CDCE13CECF13CF0470E8
:07023A00F030D5DE0206DA08
:100EBA00E5392425F8E60539227822300702782513
:100ECA00E475F0011206E802061B2000EB7F2ED221
:100EDA00008018EF540F2490D43440D4FF30040B10
:100EEA00EF24BFB41A0050032461FFE53A600215EB
:100EFA003A053DE53D7002053C30070D7822E47560
:100F0A00F0011206E8EF020661021BF17403D20730
:100F1A008003E4C207F5398B228A238924E4F53A4F
:100F2A00F53CF53DE53A60077F20120EF580F57530
:100F3A003BFFC201C200C202C203C205C206C20806
:100F4A00120EC3FF700D3007057F00120F06AF3D6A
:100F5A00AE3C22B4255FC2D5C204120EC3FF24D010
:100F6A00B40A00501A75F00A783A30D50508B6FF67
:100F7A000106C6A426F620D5047002D20380D9241D
:100F8A00CFB41A00EF5004C2E5D2040211F3D20121
:100F9A0080C6D20080C0D20280BCD2D580BAD20527
:100FAA0080B47F20120EF52002077401B53A004082
:100FBA00F1120EBAFF120EF5020F2ED208D20680D7
:100FCA0095120EBAFB120EBAFA120EBAF94A4B7001
:100FDA000679EA7A127BFF20022EE53A602A7E0021
:100FEA008E8275830012063460060EEE653B70F041
:100FFA00C2D5EBC0E0EAC0E0E9C0E0EE121253D07D
:10100A00E0F9D0E0FAD0E0FB12061BFF60AAEBC0C1
:10101A00E0EAC0E0E9C0E0120EF5D0E02401F9D020
:10102A00E03400FAD0E0FBE53B0460DCD53BD98034
:10103A0087D20280A212123660F7E53B70010412D1
:10104A00028BA93B600DE53B600914F53B1212DDEA
:10105A00EF60F3EA30E702F404C3995077EAF42523
:10106A003B0430E701E404F53B800D12123660C1FF
:10107A00EA053B253B12028BEA7838F630E701E4B1
:10108A00253B04D53B0420050114121253E4C0E0A9
:10109A001212DD7838E6601320E70714F6120EDD27
:1010AA00802204F6D0E014C0E07F00120EDDE53B9A
:1010BA006007120ED4153B800B300503120ED4D0F4
:1010CA00E0020F2ED0E00480C512123660A0E53B84
:1010DA000412028B7838EAF6E53B20050260010427
:0510EA00240412125362
:1010EF0074FF04C0E01212DD120EDDE53B20050295
:1010FF006003120ED4D0E0B53BE87F45120EE778BF
:10110F0038E67F2B30E7047F2DF404C0E0120EF594
:10111F00D0E075F00A84C0F0120EDED0E0120EDEC1
:10112F00020F2E791080027908C206C2088008D2F9
:10113F00D5790A8004790AC2D5E53B047002F53BE4
:10114F00E4FAFDFEFF120EBAFC7B08200113120E0B
:10115F00BAFD7B1030000A120EBAFE120EBAFF7BD8
:10116F0020EC3382D592D55013C3E43000069FFF95
:10117F00E49EFEE42001039DFDE49CFCE4CBF8C259
:10118F0001EC700CCFCECDCCE824F8F870F38017BB
:10119F00C3EF33FFEE33FEED33FDEC33FCEB33FBEC
:1011AF00994002FB0FD8E9EB300105F8D0E0C448B5
:1011BF00B201C0E00AEC4D4E4F78207B0070C2EABE
:1011CF00B53B0040BCC0E0121255D0F0D0E020017A
:1011DF0004C4C0E0C4B201C0F0120EDED0F0D5F0EE
:1011EF00EB020F2E1206F80FCB531132580F9C4CF7
:1011FF000F984211364F113E44113E490FB1431122
:10120F00445510754610D345103F47130A500FA091
:10121F002D0FA42E0FC72B0FA8230FC52012F32AB3
:10122F000F604800000FBFE53BB4FF03753B06128C
:10123F000EBAFC120EBAFD120EBAFE120EBAFF78DB
:10124F00310202BA790AA2D5200314300509B91068
:10125F00020404B9080104A2D5200602500104209B
:10126F0002689202B53A005034C0E07F2030031973
:10127F007F30A20272067205500F1212ACC202C268
:10128F0006C205C2087F30800F300503E9C0E012A7
:10129F000EF5300503D0E0F9D0E0B53ACC300517A4
:1012AF007F30B9100C120EF57F583004077F78800D
:1012BF0003B90803120EF53002057F2D020EF57FDC
:1012CF00202008F87F2B2006F322920280CF7F0088
:1012DF00B4070050052431F8E6FF22286E756C6CB8
:1012EF002900D201120EBA3001F8C201783A30D576
:1012FF000108F6020F602D50434958120EBA24030D
:10130F00B405004001E490130593120EE6743A12EF
:0A131F000EE6D203753A0402113203
:10024100E9D2E7C933E833F892D5EDD2E7CD33EC03
:0702510033FC5002B2D5227C
:10025800EC30E7100FBF000C0EBE00080DBD000407
:100268000BEB6014A2D5EB13FCED92E7FD2274FFB3
:10027800FCFDFEFF22E480F8A2D574FF13FC7D800C
:03028800E480EF20
:10028B00F920E72824F950037907E4F42402FB183A
:10029B00DBFDE624FB5014E9600DE4F618E604F6EA
:0F02AB00B40A08E4F6D9F57401F60A22C2D52286
:1002BA00ED33EC3392D5FA602AB4FF33EDC2E77B13
:1002CA00FF60067A0279DFE4227A0279E820D5040F
:1002DA007A0279E3224E614E002B494E46002D499F
:1002EA004E4600E47A08F608DAFC7B00740722E836
:1002FA00C0E0ECC0E0EDC0E0EEC0E0EFC0E0EA75BF
:10030A00F010A4CAABF075F04DA42BFBE435F0FC59
:10031A00EA2410FAEB34C5FBEC34D9FCEDC2E7FF52
:10032A0075F056A4F42411C5F0F434C58FF0A42A4C
:10033A00E5F03BE43CF620E7141204E5D0E0FFD0F8
:10034A00E0FED0E0FDD0E0FC12012F8014F404128C
:10035A0004E5D0E0FFD0E0FED0E0FDD0E0FC1200E2
:10036A0026D0E0F8E6FAEDD2E7CD33EC332482FB6F
:10037A00E4C3CF33CFCE33CECD33CD33DBF37B07DC
:10038A0075F00A846004F6081B0AE5F0F6088FF097
:10039A00740AA4FFACF08EF0740AA42CFEACF050E0
:1003AA00010C8DF0740AA42CFDE435F0F608DBDEAE
:0303BA00740722A3
:1003BD00020276E86480F8E933E83360110460F0F6
:1003CD00ED33EC337009E8FCE9FDEAFEEBFF2204A6
:1003DD0060DED3EB9FEA9EE99DE8C2E78CF0C2F7A1
:1003ED0095F0400CE8CCF8E9CDF9EACEFAEBCFFB6D
:1003FD0012024185D0F05804700320D5B3E8047083
:10040D00075002B2D502028092D5EC0460F7E4CC1D
:10041D00C0E0C398F8603B94186008400DD0E0FB35
:10042D00020258E4FBFAC9FC8028E830E406E4C96E
:10043D00FBE4CAFCE830E305E4C9CACBFCE8540789
:10044D006010F8C3E913F9EA13FAEB13FBEC13FC94
:10045D00D8F130F52FC3E49CFCEF9BFFEE9AFEED37
:10046D0099FDD0E0FBEF4E4D4C701222DB030202E2
:10047D007DEC2CFCEF33FFEE33FEED33FDED30E77D
:10048D00EB020258EF2BFFEE3AFEED39FDD0E0FB0B
:10049D0050130BBB0003020280ED13FDEE13FEEFB4
:0804AD0013FFEC13FC020258DE
:1004B5003F8000004120000042C80000447A00004F
:1004C500461C400047C35000497424004B189680D1
:1004D5004CBEBC205A0E1BCA6753C21C749DC5AEC8
:1004E500FB60065407601C2323120513EB54386088
:1004F500091204FF12050E120026ECF8EDF9EEFACA
:10050500EFCB22EB12050E80F1543803241C900426
:10051500B5FE93FC0EEE93FD0EEE930ECE93FF22E9
:1015FE000209A2E493A3F8E493A34003F68001F258
:10160E0008DFF48029E493A3F85407240CC8C333ED
:10161E00C4540F4420C8834004F456800146F6DFBC
:10162E00E4800B010204081020408090145BE47EDD
:10163E00019360BCA3FF543F30E509541FFEE493B1
:10164E00A360010ECF54C025E060A840B8E493A378
:10165E00FAE493A3F8E493A3C8C582C8CAC583CAA3
:10166E00F0A3C8C582C8CAC583CADFE9DEE780BE5B
:01153B0000AF
:10052500E709F608DFFA8046E709F208DFFA803EB8
:1005350088828C83E709F0A3DFFA8032E309F608A5
:10054500DFFA8078E309F208DFFA807088828C830D
:10055500E309F0A3DFFA806489828A83E0A3F608C1
:10056500DFFA805889828A83E0A3F208DFFA804C9B
:1005750080D280FA80C680D4806980F28033801072
:1005850080A680EA809A80A880DA80E280CA8033DB
:1005950089828A83ECFAE493A3C8C582C8CCC58353
:1005A500CCF0A3C8C582C8CCC583CCDFE9DEE78023
:1005B5000D89828A83E493A3F608DFF9ECFAA9F0A2
:1005C500EDFB2289828A83ECFAE0A3C8C582C8CCF8
:1005D500C583CCF0A3C8C582C8CCC583CCDFEADE11
:1005E500E880DB89828A83E493A3F208DFF980CC73
:1005F50088F0EF60010E4E60C388F0ED2402B4046C
:100605000050B9F582EB2402B4040050AF23234512
:06061500822390057573BD
:10061B00BB010689828A83E0225002E722BBFE02DD
:09062B00E32289828A83E4932210
:10063400BB010CE58229F582E5833AF583E022507B
:1006440006E92582F8E622BBFE06E92582F8E222C5
:0D065400E58229F582E5833AF583E49322DF
:10066100BB010689828A83F0225002F722BBFE0178
:02067100F32272
:10067300EF8DF0A4A8F0CF8CF0A428CE8DF0A42E9B
:02068300FE2255
:10068500BC000BBE0029EF8DF084FFADF022E4CC59
:10069500F875F008EF2FFFEE33FEEC33FCEE9DEC22
:1006A500984005FCEE9DFE0FD5F0E9E4CEFD22ED68
:1006B500F8F5F0EE8420D21CFEADF075F008EF2FB2
:1006C500FFED33FD4007985006D5F0F222C398FDA3
:0506D5000FD5F0EA2240
:0E06DA00C3E49FFFE49EFEE49DFDE49CFC2231
:1006E800FAE6FB0808E6F925F0F618E6CA3AF62213
:1006F800D083D082F8E4937012740193700DA3A391
:1007080093F8740193F5828883E4737402936860A4
:06071800EFA3A3A380DFA4
:101BF100EFB40A07740D121BFC740A309811A899EE
:101C0100B8130CC2983098FDA899C298B811F63053
:071C110099FDC299F599222B
:10071E00E3F5F009E208B5F06D606B80F3E3F5F0F8
:10072E0009E608B5F060605E80F387F009E608B56B
:10073E00F054605280F487F009E208B5F048604644
:10074E0080F488828C8387F009E0A3B5F038603698
:10075E0080F488828C8387F009E493A3B5F0276038
:10076E002580F388828C83E3F5F009E0A3B5F016BB
:10077E00601480F388828C83E3F5F009E493A3B5CB
:10078E00F004600280F2020849808580E7808E8046
:10079E00D2803C8015806C807E809B80B5808B8063
:1007AE00A1804F8070803A02085589828A83ECFAC4
:1007BE00E493F5F0A3C8C582C8CCC583CCE493A35B
:1007CE00C8C582C8CCC583CCB5F070606E80E18997
:1007DE00828A83E493F5F0A3E208B5F05E605C8054
:1007EE00F289828A83E0F5F0A3E608B5F04D604BFE
:1007FE0080F389828A83E0F5F0A3E208B5F03C60CD
:10080E003A80F389828A83E493F5F0A3E608B5F083
:10081E002A602880F2805389828A83ECFAE493F569
:10082E00F0A3C8C582C8CCC583CCE0A3C8C582C816
:10083E00CCC583CCB5F004600280E27FFFB5F00238
:10084E000F2240027F012289828A83ECFAE0F5F0C2
:10085E00A3C8C582C8CCC583CCE0A3C8C582C8CC0A
:10086E00C583CCB5F0D560D380E389828A83ECFA58
:10087E00E0F5F0A3C8C582C8CCC583CCE493A3C869
:10088E00C582C8CCC583CCB5F0B160AF80E288F02C
:10089E00ED2402B4040050A3F582EB2402B404004C
:0B08AE00509923234582239007977385
:1008B900E709F60870FA8046E709F20870FA803EFF
:1008C90088828C83E709F0A370FA807EE309F60831
:1008D90070FA8076E309F20870FA806E88828C8358
:1008E900E309F0A370FA806289828A83E0A3F6089B
:1008F90070FA805689828A83E0A3F20870FA804AE6
:1009090080D280FA80C680D4806580F280318010E0
:1009190080A680EA809A80A880DA80E280CA803145
:1009290089828A83ECFAE493A3C8C582C8CCC583BB
:10093900CCF0A3C8C582C8CCC583CC70E9800D8929
:10094900828A83E493A3F60870F9ECFAA9F0EDFB27
:100959002289828A83ECFAE0A3C8C582C8CCC58300
:10096900CCF0A3C8C582C8CCC583CC70EA80DD8928
:10097900828A83E493A3F20870F980CE88F0ED248B
:1009890002B4040050C4F582EB2402B4040050BA46
:0909990023234582239009097310
:00000001FF
